S014000050726F6A65746F46696E616C2E7372656343
S11300000C9434000C9448000C94EB000C944600BF
S11300100C9446000C9446000C9446000C94460044
S11300200C9446000C9446000C9446000C94460034
S11300300C9446000C9446000C9446000C94460024
S11300400C9446000C9446000C94D0010C94460089
S11300500C9446000C9446000C9446000C948401C5
S11300600C9446000C94460011241FBECFEFD8E038
S1130070DEBFCDBF21E0A0E0B1E001C01D92AC30F5
S1130080B207E1F70E9425020C9465020C9400006B
S11300901F920F920FB60F9211248F939F93EF9399
S11300A0FF9380910101833020F081E0809301016E
S11300B005C08F5F80930101813079F481E08093E2
S11300C00B01E6E0F1E082E4808381E6818399E636
S11300D0928398E79383848321C0823079F4809358
S11300E00B01E6E0F1E08DE4808385E6818384E61C
S11300F0828389E6838381E6848310C0833071F42C
S113010080930B01E6E0F1E081E480838CE6818357
S113011084E7828381E6838380E2848310920501ED
S1130120FF91EF919F918F910F900FBE0F901F90B1
S113013018959091050180910B019817D0F484E0F3
S113014088B92FEF85EA9EE0215080409040E1F786
S113015000C0000018B82FEF82E597E021508040DE
S11301609040E1F700C00000809105018F5F80930B
S113017005010895AC01FB0180E3808381838283C0
S113018033969A01ADECBCEC0E9456029695879585
S113019096958795969587959C01220F331F880F16
S11301A0991F880F991F880F991F820F931F9A0117
S11301B0281B390BC901805D82939A010E94560263
S11301C0AC015695479556954795569547954115D3
S11301D05105B9F608951F920F920FB60F9211248C
S11301E02F933F934F935F936F937F938F939F933B
S11301F0AF93BF93EF93FF9381E088B92FEF85EA24
S11302009EE0215080409040E1F700C0000018B803
S11302102FEF82E597E0215080409040E1F700C045
S11302200000809100018F5F8093000162E071E023
S113023090E00E94BA00809101018130A1F4E8E8C5
S1130240F0E08FE89CE0918380832FEF87EA91E6CA
S1130250215080409040E1F700C0000082EB9BE019
S1130260918380832BC08230A1F4E8E8F0E08CE62F
S11302709DE0918380832FEF87EA91E621508040AF
S11302809040E1F700C0000082EB9BE09183808303
S113029015C0833099F4E8E8F0E089E49EE09183A6
S11302A080832FEF87EA91E6215080409040E1F768
S11302B000C0000082EB9BE091838083FF91EF916B
S11302C0BF91AF919F918F917F916F915F914F916A
S11302D03F912F910F900FBE0F901F901895909300
S11302E0C5008093C40088E98093C1008EE08093A8
S11302F0C2008FEF87B90895E0ECF0E0908195FF9C
S1130300FDCF8093C60008951F920F920FB60F92EF
S113031011242F933F934F935F936F937F938F9306
S11303209F93AF93BF93EF93FF9300B605FC27C051
S113033080E20E947C018EE40E947C0189E60E9496
S11303407C0186E70E947C0185E60E947C018CE6A4
S11303500E947C0180E20E947C0182E60E947C0172
S113036081E60E947C0189E60E947C0188E70E9464
S11303707C018FE60E947C0180E20E947C01FF9157
S1130380EF91BF91AF919F918F917F916F915F9109
S11303904F913F912F910F900FBE0F901F90189582
S11303A01F920F920FB60F9211242F933F934F93E6
S11303B05F936F937F938F939F93AF93BF93CF93E9
S11303C0DF93EF93FF938091C6008137C1F480E2FD
S11303D00E947C01C6E0D1E088810E947C01898171
S11303E00E947C018A810E947C018B810E947C0195
S11303F08C810E947C0180E20E947C0113C08136C2
S113040089F480E20E947C01C2E0D1E088810E94EC
S11304107C0189810E947C018A810E947C0180E2A6
S11304200E947C01FF91EF91DF91CF91BF91AF9139
S11304309F918F917F916F915F914F913F912F91F8
S11304400F900FBE0F901F90189587E690E00E94C2
S11304506F0183E38AB98CEC8BB985E087B982E0BC
S113046084B99AE09093690093E09DBB2FE33CE943
S11304703093870020938600E0E8F0E080838AE1EF
S11304808093810080818068808380818062808302
S113049028EB3BE0309389002093880090937F0001
S11304A088E080BF78940E949900FDCFA29FB0019C
S11304B0B39FC001A39F700D811D1124911DB29F94
S11104C0700D811D1124911D0895F894FFCF35
S9030000FC
